{
  "contractName": "DataType",
  "abi": [
    {
      "constant": true,
      "inputs": [
        {
          "name": "addr",
          "type": "address"
        }
      ],
      "name": "getBalance",
      "outputs": [
        {
          "name": "",
          "type": "uint256"
        }
      ],
      "payable": false,
      "stateMutability": "view",
      "type": "function"
    },
    {
      "constant": false,
      "inputs": [],
      "name": "getAddress",
      "outputs": [
        {
          "name": "",
          "type": "uint256"
        }
      ],
      "payable": false,
      "stateMutability": "nonpayable",
      "type": "function"
    },
    {
      "constant": true,
      "inputs": [],
      "name": "getHexLitera",
      "outputs": [
        {
          "name": "",
          "type": "bytes2"
        },
        {
          "name": "",
          "type": "bytes1"
        },
        {
          "name": "",
          "type": "bytes1"
        }
      ],
      "payable": false,
      "stateMutability": "view",
      "type": "function"
    },
    {
      "constant": true,
      "inputs": [],
      "name": "getSeason",
      "outputs": [
        {
          "name": "",
          "type": "uint8"
        }
      ],
      "payable": false,
      "stateMutability": "view",
      "type": "function"
    }
  ],
  "bytecode": "0x608060405234801561001057600080fd5b506102d4806100206000396000f3fe608060405234801561001057600080fd5b506004361061004c5760003560e01c806338cc48311461005157806354c9d2731461006f578063adfec0371461009b578063f8b2cb4f14610191575b600080fd5b6100596101e9565b6040518082815260200191505060405180910390f35b610077610212565b6040518082600381111561008757fe5b60ff16815260200191505060405180910390f35b6100a361022b565b60405180847dffffffffffffffffffffffffffffffffffffffffffffffffffffffffffff19167dffffffffffffffffffffffffffffffffffffffffffffffffffffffffffff19168152602001837effffffffffffffffffffffffffffffffffffffffffffffffffffffffffffff19167effffffffffffffffffffffffffffffffffffffffffffffffffffffffffffff19168152602001827effffffffffffffffffffffffffffffffffffffffffffffffffffffffffffff19167effffffffffffffffffffffffffffffffffffffffffffffffffffffffffffff19168152602001935050505060405180910390f35b6101d3600480360360208110156101a757600080fd5b81019080803573ffffffffffffffffffffffffffffffffffffffff169060200190929190505050610287565b6040518082815260200191505060405180910390f35b60008073ca35b7d915458ef540ade6068dfe2f44e8fa733c905061020c81610287565b91505090565b6000806005600381111561022257fe5b90508091505090565b6000806000807f01f400000000000000000000000000000000000000000000000000000000000090508081600060028110151561026457fe5b1a60f81b82600160028110151561027757fe5b1a60f81b93509350935050909192565b60008173ffffffffffffffffffffffffffffffffffffffff1631905091905056fea165627a7a7230582076065280d7e84e4aefc39f2a467580c4617af4f84e2cf75265f516b4144554d70029",
  "source": "pragma solidity ^0.5.5;\n\n\ncontract DataType {\n\n\n    function getBalance(address addr) public view returns (uint) {\n        return addr.balance;\n    }\n\n  \n    function getAddress() public returns (uint) { \n\taddress b = address(0x00ca35b7d915458ef540ade6068dfe2f44e8fa733c);\n        return getBalance(b);\n    }\n\n\n    function getHexLitera() public view returns (bytes2, bytes1, bytes1){\n        bytes2 b = hex\"01f4\";\n        return (b, b[0], b[1]);\n    }\n\n\n    enum Season{Spring, Summer, Autumn, Winter}\n\n\n    function getSeason() public view returns(Season){\n        Season s = Season(5);\n        return s;\n    }\n    \n}\n",
  "sourcePath": "/home/roomqcarry/platon-game/EVM/DataType/contracts/DataType.sol",
  "compiler": {
    "name": "solc",
    "version": "0.5.5+commit.c5c466fb.Emscripten.clang"
  },
  "schemaVersion": "3.0.19",
  "updatedAt": "2020-06-09T07:38:34.571Z",
  "devdoc": {
    "methods": {}
  },
  "userdoc": {
    "methods": {}
  }
}