{
  "contractName": "Circulate",
  "abi": [
    {
      "constant": true,
      "inputs": [],
      "name": "g",
      "outputs": [
        {
          "name": "",
          "type": "bool"
        }
      ],
      "payable": false,
      "stateMutability": "view",
      "type": "function"
    },
    {
      "constant": false,
      "inputs": [
        {
          "name": "x",
          "type": "uint256"
        }
      ],
      "name": "c",
      "outputs": [],
      "payable": false,
      "stateMutability": "nonpayable",
      "type": "function"
    }
  ],
  "bytecode": "0x608060405234801561001057600080fd5b5061015b806100206000396000f3fe608060405234801561001057600080fd5b50600436106100365760003560e01c80634f8dd50d1461003b578063e2179b8e14610069575b600080fd5b6100676004803603602081101561005157600080fd5b810190808035906020019092919050505061008b565b005b6100716100be565b604051808215151515815260200191505060405180910390f35b5b6001156100bb57806001819055506000800160009054906101000a900460ff16156100b6576100bb565b61008c565b50565b60006100c861011a565b6100d06100dd565b9050806000015191505090565b6100e561011a565b6001156101175760006040518060200160405290816000820160009054906101000a900460ff16151515158152505090505b90565b6040518060200160405280600015158152509056fea165627a7a7230582091914796bf319da42259dff27b58a5e49bb5e43b3eb351ebf596673fa22603380029",
  "source": "pragma solidity ^0.5.5;\n\n\ncontract Circulate {\n\n    struct S { bool f; }\n    S s;\n    uint v;\n    \n    function h() internal view returns (S memory c) {\n        if(true) {\n\t  c=s;\n        }\n    }\n    \n    function g() public view returns(bool){\n        S memory st = h();\n        return st.f;\n    }\n\n    function c(uint x) public {\n        //无限循环\n        while(true) {\n             v = x;\n\t     if (s.f)\n\t     {\n\t       break;\n\t     }\n        }\n    }\n}\n",
  "sourcePath": "/home/roomqcarry/platon-game/EVM/Circulate/contracts/Circulate.sol",
  "compiler": {
    "name": "solc",
    "version": "0.5.5+commit.c5c466fb.Emscripten.clang"
  },
  "schemaVersion": "3.0.19",
  "updatedAt": "2020-06-09T07:08:28.073Z",
  "devdoc": {
    "methods": {}
  },
  "userdoc": {
    "methods": {}
  }
}